S02700004F6E2D64656D616E642054726166666963204C6967687420436F6E74726F6C2E73726563B2
S11300000C942A000C942C010C9414040C944700B6
S11300100C9447000C9447000C9447000C94470040
S11300200C9447000C9447000C9447000C94470030
S11300300C9447000C9447000C9447000C94470020
S11300400C9447000C9447000C9447000C94470010
S11300500C94470011241FBECFE5D8E0DEBFCDBF0E
S113006010E0A0E6B0E0EAE4F8E002C005900D92EA
S1130070A436B107D9F720E0A4E6B0E001C01D9290
S1130080A736B207E1F70E94EE010C9423040C9406
S1130090000060E080E00E94780161E080E00E945E
S11300A0780162E080E00E94780160E081E00E94D3
S11300B0780161E081E00E94780162E081E00E94C1
S11300C0780162E083E00E94740180E690E00E947F
S11300D0A70362E086E00E94510210926500089531
S11300E00F931F9380916500882321F0813009F4D8
S11300F04CC0AFC062E080E00E947C0180E690E0EA
S11301000E94FA0362E080E00E94800160E081E0E6
S11301100E94800180916500813009F49AC040E614
S113012050E061E080E00E94840161E080E00E9490
S1130130800160E081E00E9480018091650081304F
S113014009F487C060E080E00E947C0180E690E0D2
S11301500E94FA0380916500811103C060E00E944F
S1130160800180916500813009F473C040E650E05D
S113017061E080E00E94840161E080E00E948001EF
S113018060E081E00E94800164C08091660081117A
S113019014C060E00E947C0162E081E00E947C0166
S11301A080E690E00E94FA0360E080E00E94800113
S11301B062E081E00E947C0123C000E610E021E0BF
S11301C041E061E080E00E94B30161E080E00E94D0
S11301D0800161E081E00E94800160E080E00E9493
S11301E07C0162E081E00E947C01C8010E94FA0364
S11301F060E080E00E94800162E081E00E947C0176
S113020062E081E00E947C0100E610E021E041E030
S113021061E080E00E94B30162E081E00E9480011D
S113022061E080E00E94800161E081E00E94800141
S113023062E080E00E947C0160E081E00E947C0139
S1130240C8010E94FA0360E081E00E9480011092DC
S113025065001F910F9108951F920F920FB60F9290
S113026011242F933F934F935F936F937F938F93B7
S11302709F93AF93BF93EF93FF9381E080936500C7
S113028060E080E00E94EB01882319F01092660080
S11302900DC062E080E00E94EB01882321F082E03F
S11302A08093660003C081E08093660080916600BD
S11302B0811105C062E081E00E947C0104C060E01D
S11302C081E00E947C01FF91EF91BF91AF919F91DA
S11302D08F917F916F915F914F913F912F910F90EB
S11302E00FBE0F901F90189540E00E94620208957F
S11302F041E00E946202089541E00E94D202089502
S113030040E00E94D2020895FF920F931F93CF936F
S1130310DF93F82ED62F8A01CA010E94B203C0E0EF
S113032016C00E94F7038823E1F388B7816088BF71
S11303308BEAC89F812D11248695982F990F890FD8
S1130340C81304C06D2F8F2D0E944203CF5FF801A4
S11303508181C81730F30E94F503DF91CF911F917B
S11303600F91FF900895DF92EF92FF920F931F93E6
S1130370CF93DF93D82EE62EF42ED22FC8010E94FD
S1130380B203C0E01AC00E94F7038823E1F388B7E0
S1130390816088BF8BEAC89F812D11248695982F90
S11303A0990F890FC81308C06E2D8D2D0E9442032A
S11303B06D2F8F2D0E944203CF5FF8018181C817F2
S11303C010F30E94F503DF91CF911F910F91FF90DD
S11303D0EF90DF9008950E94760308950E944900EB
S11303E00E947000FDCF863031F56230F1F018F4D0
S11303F0662331F020C0633089F0643041F01BC0C3
S113040095B79E7F95BF95B79D7F95BF14C095B74F
S1130410916095BF95B79D7F95BF0DC095B79E7FA1
S113042095BF95B7926095BF06C095B7916095BF8B
S113043095B7926095BF873031F56230F1F018F4CA
S1130440662331F020C0633089F0643041F01BC072
S113045095B79B7F95BF95B7977F95BF14C095B708
S1130460946095BF95B7977F95BF0DC095B79B7F57
S113047095BF95B7986095BF06C095B7946095BF32
S113048095B7986095BF853059F4623031F0633088
S113049039F484B78F7B84BF089584B7806484BFA4
S11304A00895CF93C82F78940E94F3012BB781E06D
S11304B090E002C0880F991FCA95E2F7822B8BBF88
S11304C0CF910895411138C0813091F028F08230E5
S11304D0D9F0833029F108952AB381E090E002C075
S11304E0880F991F6A95E2F7809582238ABB089545
S11304F027B381E090E002C0880F991F6A95E2F764
S11305008095822387BB089524B381E090E002C0E4
S1130510880F991F6A95E2F78095822384BB08951A
S113052021B381E090E002C0880F991F6A95E2F739
S11305308095822381BB0895413099F5813089F0FB
S113054028F08230C9F0833011F108952AB381E094
S113055090E002C0880F991F6A95E2F7822B8ABB4C
S1130560089527B381E090E002C0880F991F6A952F
S1130570E2F7822B87BB089524B381E090E002C0A8
S1130580880F991F6A95E2F7822B84BB089521B3E3
S113059081E090E002C0880F991F6A95E2F7822BF0
S11305A081BB0895411138C0813091F028F0823028
S11305B0D9F0833029F108952BB381E090E002C093
S11305C0880F991F6A95E2F7809582238BBB089563
S11305D028B381E090E002C0880F991F6A95E2F782
S11305E08095822388BB089525B381E090E002C002
S11305F0880F991F6A95E2F78095822385BB089539
S113060022B381E090E002C0880F991F6A95E2F757
S11306108095822382BB0895413099F5813089F019
S113062028F08230C9F0833011F108952BB381E0B2
S113063090E002C0880F991F6A95E2F7822B8BBB6A
S1130640089528B381E090E002C0880F991F6A954D
S1130650E2F7822B88BB089525B381E090E002C0C5
S1130660880F991F6A95E2F7822B85BB089522B300
S113067081E090E002C0880F991F6A95E2F7822B0F
S113068082BB0895813089F028F08230C9F083302C
S113069011F108952BB381E090E002C0880F991FF7
S11306A06A95E2F782278BBB089528B381E090E036
S11306B002C0880F991F6A95E2F7822788BB0895C4
S11306C025B381E090E002C0880F991F6A95E2F794
S11306D0822785BB089522B381E090E002C0880F91
S11306E0991F6A95E2F7822782BB0895813081F0D1
S11306F028F08230B9F08330F9F027C08BB390E052
S113070002C0959587956A95E2F7982F91701DC060
S113071088B390E002C0959587956A95E2F7982F83
S1130720917013C085B390E002C0959587956A9542
S1130730E2F7982F917009C082B390E002C09595BA
S113074087956A95E2F7982F9170892F0895FC0197
S11307508281811106C083B78F7B83BF83B7877F74
S113076083BF0895FC01208122BF83818230F9F088
S113077028F4882341F0813081F00895833009F111
S1130780843049F1089583B7816083BF83B78D7F37
S113079083BF83B78B7F83BF089583B78E7F83BF67
S11307A083B7826083BF83B78B7F83BF089583B78A
S11307B0816083BF83B7826083BF83B78B7F83BF2E
S11307C0089583B78E7F83BF83B78D7F83BF83B73D
S11307D0846083BF089583B7816083BF83B78D7FAF
S11307E083BF83B7846083BF089513BE089588B719
S11307F0817008950F931F93CF938C010E94B203CD
S1130800C0E008C00E94F7038823E1F388B7816041
S113081088BFCF5FF8018181C817A0F30E94F50358
S1130820CF911F910F9108951F920F920FB60F92BF
S113083011248F9381E0809364008F910F900FBEF9
S10D08400F901F901895F894FFCF55
S107084A001300048F
S9030000FC
