:100000000C942A000C9444010C941F040C94470097
:100010000C9447000C9447000C9447000C94470044
:100020000C9447000C9447000C9447000C94470034
:100030000C9447000C9447000C9447000C94470024
:100040000C9447000C9447000C9447000C94470014
:100050000C94470011241FBECFE5D8E0DEBFCDBF12
:1000600010E0A0E6B0E0E0E6F8E002C005900D92F6
:10007000A436B107D9F720E0A4E6B0E001C01D9294
:10008000A736B207E1F70E94F9010C942E040C94F4
:10009000000060E080E00E94830161E080E00E9457
:1000A000830162E080E00E94830160E081E00E94C1
:1000B000830161E081E00E94830162E081E00E94AF
:1000C000830162E083E00E947F0180E690E00E946D
:1000D000B20362E086E00E945C021092650008951F
:1000E0000F931F9380916500882319F08130E9F107
:1000F000C8C062E080E00E94870180E690E00E9434
:10010000050462E080E00E948B01809165008130EF
:1001100009F4B7C040E650E061E080E00E948F0142
:1001200061E080E00E948B0180916500813009F4DC
:10013000A8C060E080E00E94870180E690E00E9415
:10014000050460E080E00E948B01809165008130B1
:1001500009F497C040E650E061E080E00E948F0122
:1001600061E080E00E948B018CC08091660081116B
:1001700014C060E00E94870162E081E00E94870174
:1001800080E690E00E94050460E080E00E948B0120
:1001900062E081E00E9487014BC0813091F460E011
:1001A0000E94870140E650E061E080E00E948F01FC
:1001B00060E081E00E948B0161E080E00E948B01A1
:1001C00014C062E080E00E94870160E081E00E944C
:1001D000870180E690E00E94050462E080E00E94D2
:1001E0008B0160E081E00E948B0100E610E021E0DD
:1001F00041E061E080E00E94BE0161E080E00E9499
:100200008B0161E081E00E948B0160E080E00E9450
:10021000870162E081E00E948701C8010E94050415
:1002200060E080E00E948B0162E081E00E94870133
:1002300062E081E00E94870100E610E021E041E0F9
:1002400061E080E00E94BE0162E081E00E948B01DB
:1002500061E080E00E948B0161E081E00E948B01FF
:1002600062E080E00E94870160E081E00E948701F7
:10027000C8010E94050460E081E00E948B01109299
:1002800065001F910F9108951F920F920FB60F9264
:1002900011242F933F934F935F936F937F938F938B
:1002A0009F93AF93BF93EF93FF9381E0809365009B
:1002B00060E080E00E94F601882319F01092660049
:1002C0000DC062E080E00E94F601882321F082E008
:1002D0008093660003C081E080936600FF91EF91F8
:1002E000BF91AF919F918F917F916F915F914F914E
:1002F0003F912F910F900FBE0F901F90189540E0E7
:100300000E946D02089541E00E946D02089541E04F
:100310000E94DD02089540E00E94DD020895FF92F0
:100320000F931F93CF93DF93F82ED62F8A01CA0124
:100330000E94BD03C0E016C00E9402048823E1F3BE
:1003400088B7816088BF8BEAC89F812D112486956C
:10035000982F990F890FC81304C06D2F8F2D0E94FD
:100360004D03CF5FF8018181C81730F30E9400046C
:10037000DF91CF911F910F91FF900895DF92EF923F
:10038000FF920F931F93CF93DF93D82EE62EF42E78
:10039000D22FC8010E94BD03C0E01AC00E9402040F
:1003A0008823E1F388B7816088BF8BEAC89F812DDD
:1003B00011248695982F990F890FC81308C06E2DA8
:1003C0008D2D0E944D036D2F8F2D0E944D03CF5F09
:1003D000F8018181C81710F30E940004DF91CF91CA
:1003E0001F910F91FF90EF90DF9008950E9481037D
:1003F00008950E9449000E947000FDCF863031F5BB
:100400006230F1F018F4662331F020C0633089F0D7
:10041000643041F01BC095B79E7F95BF95B79D7F17
:1004200095BF14C095B7916095BF95B79D7F95BF57
:100430000DC095B79E7F95BF95B7926095BF06C0DA
:1004400095B7916095BF95B7926095BF873031F5AC
:100450006230F1F018F4662331F020C0633089F087
:10046000643041F01BC095B79B7F95BF95B7977FD0
:1004700095BF14C095B7946095BF95B7977F95BF0A
:100480000DC095B79B7F95BF95B7986095BF06C087
:1004900095B7946095BF95B7986095BF853059F42E
:1004A000623031F0633039F484B78F7B84BF0895B4
:1004B00084B7806484BF0895CF93C82F78940E9436
:1004C000FE012BB781E090E002C0880F991FCA950A
:1004D000E2F7822B8BBFCF910895411138C0813054
:1004E00091F028F08230D9F0833029F108952AB3B1
:1004F00081E090E002C0880F991F6A95E2F780952D
:1005000082238ABB089527B381E090E002C0880F60
:10051000991F6A95E2F78095822387BB089524B3DB
:1005200081E090E002C0880F991F6A95E2F78095FC
:10053000822384BB089521B381E090E002C0880F3C
:10054000991F6A95E2F78095822381BB0895413017
:1005500099F5813089F028F08230C9F0833011F1AB
:1005600008952AB381E090E002C0880F991F6A9530
:10057000E2F7822B8ABB089527B381E090E002C0A6
:10058000880F991F6A95E2F7822B87BB089524B3E1
:1005900081E090E002C0880F991F6A95E2F7822BF4
:1005A00084BB089521B381E090E002C0880F991FB9
:1005B0006A95E2F7822B81BB0895411138C08130E2
:1005C00091F028F08230D9F0833029F108952BB3CF
:1005D00081E090E002C0880F991F6A95E2F780954C
:1005E00082238BBB089528B381E090E002C0880F7E
:1005F000991F6A95E2F78095822388BB089525B3F9
:1006000081E090E002C0880F991F6A95E2F780951B
:10061000822385BB089522B381E090E002C0880F59
:10062000991F6A95E2F78095822382BB0895413035
:1006300099F5813089F028F08230C9F0833011F1CA
:1006400008952BB381E090E002C0880F991F6A954E
:10065000E2F7822B8BBB089528B381E090E002C0C3
:10066000880F991F6A95E2F7822B88BB089525B3FE
:1006700081E090E002C0880F991F6A95E2F7822B13
:1006800085BB089522B381E090E002C0880F991FD6
:100690006A95E2F7822B82BB0895813089F028F0B9
:1006A0008230C9F0833011F108952BB381E090E0DE
:1006B00002C0880F991F6A95E2F782278BBB0895C5
:1006C00028B381E090E002C0880F991F6A95E2F795
:1006D000822788BB089525B381E090E002C0880F8F
:1006E000991F6A95E2F7822785BB089522B381E0BE
:1006F00090E002C0880F991F6A95E2F7822782BBBB
:100700000895813081F028F08230B9F08330F9F01B
:1007100027C08BB390E002C0959587956A95E2F764
:10072000982F91701DC088B390E002C09595879571
:100730006A95E2F7982F917013C085B390E002C0DC
:10074000959587956A95E2F7982F917009C082B3C5
:1007500090E002C0959587956A95E2F7982F917081
:10076000892F0895FC018281811106C083B78F7B98
:1007700083BF83B7877F83BF0895FC01208122BF99
:1007800083818230F9F028F4882341F0813081F0B0
:100790000895833009F1843049F1089583B7816069
:1007A00083BF83B78D7F83BF83B78B7F83BF08955C
:1007B00083B78E7F83BF83B7826083BF83B78B7F0E
:1007C00083BF089583B7816083BF83B7826083BF8F
:1007D00083B78B7F83BF089583B78E7F83BF83B733
:1007E0008D7F83BF83B7846083BF089583B78160A3
:1007F00083BF83B78D7F83BF83B7846083BF089532
:1008000013BE089588B7817008950F931F93CF93F7
:100810008C010E94BD03C0E008C00E94020488232E
:10082000E1F388B7816088BFCF5FF8018181C81785
:10083000A0F30E940004CF911F910F9108951F9281
:100840000F920FB60F9211248F9381E08093640072
:100850008F910F900FBE0F901F901895F894FFCFB7
:04086000001300047D
:00000001FF
