S02700004F6E2D64656D616E642054726166666963204C6967687420436F6E74726F6C2E73726563B2
S11300000C942A000C9454010C94CF030C944700D4
S11300100C9447000C9447000C9447000C94470040
S11300200C9447000C9447000C9447000C94470030
S11300300C9447000C9447000C9447000C94470020
S11300400C9447000C9447000C9447000C94470010
S11300500C94470011241FBECFE5D8E0DEBFCDBF0E
S113006010E0A0E6B0E0E0ECF7E002C005900D92ED
S1130070A436B107D9F720E0A4E6B0E001C01D9290
S1130080A736B207E1F70E94A9010C94DE030C9491
S1130090000060E080E00E94970161E080E00E943F
S11300A0970162E080E00E94970160E081E00E9495
S11300B0970161E081E00E94970162E081E00E9483
S11300C0970162E083E00E94930180E690E00E9441
S11300D0620362E086E00E940C02109265000895BB
S11300E0CF9380916500882321F0813009F499C071
S11300F0D9C062E080E00E949B0160E081E00E9440
S11301009B01C0E009C080E690E00E94B5038091A5
S11301106500813019F0CF5FCA30A8F362E080E057
S11301200E949F0160E081E00E949F018091650030
S1130130813009F4B7C0C0E013C0C0FD08C061E05D
S113014080E00E94A30161E081E00E94A30180E6B7
S113015090E00E94B50380916500813019F0CF5F73
S1130160CA3058F361E080E00E949F0161E081E0C1
S11301700E949F0180916500813009F493C060E082
S113018080E00E949B0162E081E00E949B01C0E04C
S113019009C080E690E00E94B5038091650081303B
S11301A019F0CF5FCA30A8F360E080E00E949F019D
S11301B062E081E00E949F0180916500813009F432
S11301C071C0C0E013C0C0FD08C061E080E00E94BF
S11301D0A30161E081E00E94A30180E690E00E9417
S11301E0B50380916500813019F0CF5FCA3058F3B0
S11301F061E080E00E949F0161E081E00E949F0134
S113020051C0C0FD08C061E080E00E94A30161E02C
S113021081E00E94A30180E690E00E94B503CF5FD5
S113022001C0C0E0CA3068F361E080E00E949F0131
S113023061E081E00E949F0160E080E00E949B01F8
S113024062E081E00E949B01C0E005C080E690E08E
S11302500E94B503CF5FCA30C8F360E080E00E941B
S11302609F01C0E00FC0C0FD08C061E080E00E94B3
S1130270A30161E081E00E94A30180E690E00E9476
S1130280B503CF5FCA3078F361E080E00E949F013C
S113029061E081E00E949F0162E081E00E949F0191
S11302A010926500CF9108951F920F920FB60F928E
S11302B011242F933F934F935F936F937F938F9367
S11302C09F93AF93BF93EF93FF9360E080E00E940E
S11302D0A601882319F0109266000DC062E080E048
S11302E00E94A601882321F082E08093660003C067
S11302F081E08093660080916600882319F081E094
S113030080936500FF91EF91BF91AF919F918F9181
S11303107F916F915F914F913F912F910F900FBEFD
S11303200F901F90189540E00E941D02089541E02F
S11303300E941D02089541E00E948D02089540E04C
S11303400E948D0208950E94FD0208950E943103C7
S113035008950E9449000E947000FDCF863031F557
S11303606230F1F018F4662331F020C0633089F074
S1130370643041F01BC095B79E7F95BF95B79D7FB4
S113038095BF14C095B7916095BF95B79D7F95BFF4
S11303900DC095B79E7F95BF95B7926095BF06C077
S11303A095B7916095BF95B7926095BF873031F549
S11303B06230F1F018F4662331F020C0633089F024
S11303C0643041F01BC095B79B7F95BF95B7977F6D
S11303D095BF14C095B7946095BF95B7977F95BFA7
S11303E00DC095B79B7F95BF95B7986095BF06C024
S11303F095B7946095BF95B7986095BF853059F4CB
S1130400623031F0633039F484B78F7B84BF089550
S113041084B7806484BF0895CF93C82F78940E94D2
S1130420AE012BB781E090E002C0880F991FCA95F6
S1130430E2F7822B8BBFCF910895411138C08130F0
S113044091F028F08230D9F0833029F108952AB34D
S113045081E090E002C0880F991F6A95E2F78095C9
S113046082238ABB089527B381E090E002C0880FFD
S1130470991F6A95E2F78095822387BB089524B378
S113048081E090E002C0880F991F6A95E2F7809599
S1130490822384BB089521B381E090E002C0880FD9
S11304A0991F6A95E2F78095822381BB08954130B4
S11304B099F5813089F028F08230C9F0833011F148
S11304C008952AB381E090E002C0880F991F6A95CD
S11304D0E2F7822B8ABB089527B381E090E002C043
S11304E0880F991F6A95E2F7822B87BB089524B37E
S11304F081E090E002C0880F991F6A95E2F7822B91
S113050084BB089521B381E090E002C0880F991F55
S11305106A95E2F7822B81BB0895411138C081307E
S113052091F028F08230D9F0833029F108952BB36B
S113053081E090E002C0880F991F6A95E2F78095E8
S113054082238BBB089528B381E090E002C0880F1A
S1130550991F6A95E2F78095822388BB089525B395
S113056081E090E002C0880F991F6A95E2F78095B8
S1130570822385BB089522B381E090E002C0880FF6
S1130580991F6A95E2F78095822382BB08954130D2
S113059099F5813089F028F08230C9F0833011F167
S11305A008952BB381E090E002C0880F991F6A95EB
S11305B0E2F7822B8BBB089528B381E090E002C060
S11305C0880F991F6A95E2F7822B88BB089525B39B
S11305D081E090E002C0880F991F6A95E2F7822BB0
S11305E085BB089522B381E090E002C0880F991F73
S11305F06A95E2F7822B82BB0895813089F028F056
S11306008230C9F0833011F108952BB381E090E07A
S113061002C0880F991F6A95E2F782278BBB089561
S113062028B381E090E002C0880F991F6A95E2F731
S1130630822788BB089525B381E090E002C0880F2B
S1130640991F6A95E2F7822785BB089522B381E05A
S113065090E002C0880F991F6A95E2F7822782BB57
S11306600895813081F028F08230B9F08330F9F0B8
S113067027C08BB390E002C0959587956A95E2F701
S1130680982F91701DC088B390E002C0959587950E
S11306906A95E2F7982F917013C085B390E002C079
S11306A0959587956A95E2F7982F917009C082B362
S11306B090E002C0959587956A95E2F7982F91701E
S11306C0892F0895FC018281811106C083B78F7B35
S11306D083BF83B7877F83BF0895FC01208122BF36
S11306E083818230F9F028F4882341F0813081F04D
S11306F00895833009F1843049F1089583B7816006
S113070083BF83B78D7F83BF83B78B7F83BF0895F8
S113071083B78E7F83BF83B7826083BF83B78B7FAA
S113072083BF089583B7816083BF83B7826083BF2B
S113073083B78B7F83BF089583B78E7F83BF83B7CF
S11307408D7F83BF83B7846083BF089583B781603F
S113075083BF83B78D7F83BF83B7846083BF0895CE
S113076013BE089588B7817008950F931F93CF9394
S11307708C010E946D03C0E008C00E94B20388236C
S1130780E1F388B7816088BFCF5FF8018181C81722
S1130790A0F30E94B003CF911F910F9108951F926F
S11307A00F920FB60F9211248F9381E0809364000F
S11307B08F910F900FBE0F901F901895F894FFCF54
S10707C00C0200041F
S9030000FC
